{
  "_format": "hh-sol-artifact-1",
  "contractName": "JobMarketplace",
  "sourceName": "contracts/JobMarketplace.sol",
  "abi": [
    {
      "inputs": [
        {
          "internalType": "contract IERC20",
          "name": "token",
          "type": "address"
        }
      ],
      "stateMutability": "nonpayable",
      "type": "constructor"
    },
    {
      "inputs": [],
      "name": "EmptyDeliverableRef",
      "type": "error"
    },
    {
      "inputs": [],
      "name": "EmptyDescription",
      "type": "error"
    },
    {
      "inputs": [],
      "name": "InvalidBudget",
      "type": "error"
    },
    {
      "inputs": [],
      "name": "InvalidExpiration",
      "type": "error"
    },
    {
      "inputs": [
        {
          "internalType": "enum JobMarketplace.JobStatus",
          "name": "currentStatus",
          "type": "uint8"
        }
      ],
      "name": "InvalidStatus",
      "type": "error"
    },
    {
      "inputs": [],
      "name": "JobExpired",
      "type": "error"
    },
    {
      "inputs": [],
      "name": "JobNotExpired",
      "type": "error"
    },
    {
      "inputs": [],
      "name": "JobNotFound",
      "type": "error"
    },
    {
      "inputs": [],
      "name": "NotClient",
      "type": "error"
    },
    {
      "inputs": [],
      "name": "NotEvaluator",
      "type": "error"
    },
    {
      "inputs": [],
      "name": "NotProvider",
      "type": "error"
    },
    {
      "inputs": [],
      "name": "ProviderAlreadySet",
      "type": "error"
    },
    {
      "inputs": [],
      "name": "ProviderRequired",
      "type": "error"
    },
    {
      "inputs": [],
      "name": "ReentrancyGuardReentrantCall",
      "type": "error"
    },
    {
      "inputs": [
        {
          "internalType": "address",
          "name": "token",
          "type": "address"
        }
      ],
      "name": "SafeERC20FailedOperation",
      "type": "error"
    },
    {
      "inputs": [],
      "name": "ZeroAddress",
      "type": "error"
    },
    {
      "anonymous": false,
      "inputs": [
        {
          "indexed": true,
          "internalType": "uint256",
          "name": "jobId",
          "type": "uint256"
        },
        {
          "indexed": true,
          "internalType": "address",
          "name": "evaluator",
          "type": "address"
        },
        {
          "indexed": true,
          "internalType": "address",
          "name": "provider",
          "type": "address"
        },
        {
          "indexed": false,
          "internalType": "bytes32",
          "name": "reason",
          "type": "bytes32"
        }
      ],
      "name": "JobCompleted",
      "type": "event"
    },
    {
      "anonymous": false,
      "inputs": [
        {
          "indexed": true,
          "internalType": "uint256",
          "name": "jobId",
          "type": "uint256"
        },
        {
          "indexed": true,
          "internalType": "address",
          "name": "client",
          "type": "address"
        },
        {
          "indexed": true,
          "internalType": "address",
          "name": "evaluator",
          "type": "address"
        },
        {
          "indexed": false,
          "internalType": "address",
          "name": "provider",
          "type": "address"
        },
        {
          "indexed": false,
          "internalType": "string",
          "name": "description",
          "type": "string"
        },
        {
          "indexed": false,
          "internalType": "uint256",
          "name": "budget",
          "type": "uint256"
        },
        {
          "indexed": false,
          "internalType": "uint256",
          "name": "expiresAt",
          "type": "uint256"
        }
      ],
      "name": "JobCreated",
      "type": "event"
    },
    {
      "anonymous": false,
      "inputs": [
        {
          "indexed": true,
          "internalType": "uint256",
          "name": "jobId",
          "type": "uint256"
        },
        {
          "indexed": true,
          "internalType": "address",
          "name": "client",
          "type": "address"
        },
        {
          "indexed": false,
          "internalType": "uint256",
          "name": "amount",
          "type": "uint256"
        }
      ],
      "name": "JobFunded",
      "type": "event"
    },
    {
      "anonymous": false,
      "inputs": [
        {
          "indexed": true,
          "internalType": "uint256",
          "name": "jobId",
          "type": "uint256"
        },
        {
          "indexed": true,
          "internalType": "address",
          "name": "rejectedBy",
          "type": "address"
        },
        {
          "indexed": false,
          "internalType": "bytes32",
          "name": "reason",
          "type": "bytes32"
        }
      ],
      "name": "JobRejected",
      "type": "event"
    },
    {
      "anonymous": false,
      "inputs": [
        {
          "indexed": true,
          "internalType": "uint256",
          "name": "jobId",
          "type": "uint256"
        },
        {
          "indexed": true,
          "internalType": "address",
          "name": "provider",
          "type": "address"
        },
        {
          "indexed": false,
          "internalType": "bytes32",
          "name": "deliverableRef",
          "type": "bytes32"
        }
      ],
      "name": "JobSubmitted",
      "type": "event"
    },
    {
      "anonymous": false,
      "inputs": [
        {
          "indexed": true,
          "internalType": "uint256",
          "name": "jobId",
          "type": "uint256"
        },
        {
          "indexed": true,
          "internalType": "address",
          "name": "provider",
          "type": "address"
        }
      ],
      "name": "ProviderSet",
      "type": "event"
    },
    {
      "anonymous": false,
      "inputs": [
        {
          "indexed": true,
          "internalType": "uint256",
          "name": "jobId",
          "type": "uint256"
        },
        {
          "indexed": true,
          "internalType": "address",
          "name": "claimedBy",
          "type": "address"
        }
      ],
      "name": "RefundClaimed",
      "type": "event"
    },
    {
      "inputs": [
        {
          "internalType": "uint256",
          "name": "jobId",
          "type": "uint256"
        }
      ],
      "name": "claimRefund",
      "outputs": [],
      "stateMutability": "nonpayable",
      "type": "function"
    },
    {
      "inputs": [
        {
          "internalType": "uint256",
          "name": "jobId",
          "type": "uint256"
        },
        {
          "internalType": "bytes32",
          "name": "reason",
          "type": "bytes32"
        }
      ],
      "name": "complete",
      "outputs": [],
      "stateMutability": "nonpayable",
      "type": "function"
    },
    {
      "inputs": [
        {
          "internalType": "string",
          "name": "description",
          "type": "string"
        },
        {
          "internalType": "uint256",
          "name": "budget",
          "type": "uint256"
        },
        {
          "internalType": "address",
          "name": "evaluator",
          "type": "address"
        },
        {
          "internalType": "address",
          "name": "provider",
          "type": "address"
        },
        {
          "internalType": "uint256",
          "name": "expiresAt",
          "type": "uint256"
        }
      ],
      "name": "createJob",
      "outputs": [
        {
          "internalType": "uint256",
          "name": "jobId",
          "type": "uint256"
        }
      ],
      "stateMutability": "nonpayable",
      "type": "function"
    },
    {
      "inputs": [
        {
          "internalType": "uint256",
          "name": "jobId",
          "type": "uint256"
        }
      ],
      "name": "fund",
      "outputs": [],
      "stateMutability": "nonpayable",
      "type": "function"
    },
    {
      "inputs": [
        {
          "internalType": "uint256",
          "name": "jobId",
          "type": "uint256"
        }
      ],
      "name": "getJob",
      "outputs": [
        {
          "components": [
            {
              "internalType": "address",
              "name": "client",
              "type": "address"
            },
            {
              "internalType": "address",
              "name": "evaluator",
              "type": "address"
            },
            {
              "internalType": "address",
              "name": "provider",
              "type": "address"
            },
            {
              "internalType": "string",
              "name": "description",
              "type": "string"
            },
            {
              "internalType": "uint256",
              "name": "budget",
              "type": "uint256"
            },
            {
              "internalType": "uint256",
              "name": "expiresAt",
              "type": "uint256"
            },
            {
              "internalType": "enum JobMarketplace.JobStatus",
              "name": "status",
              "type": "uint8"
            },
            {
              "internalType": "bytes32",
              "name": "deliverableRef",
              "type": "bytes32"
            }
          ],
          "internalType": "struct JobMarketplace.Job",
          "name": "",
          "type": "tuple"
        }
      ],
      "stateMutability": "view",
      "type": "function"
    },
    {
      "inputs": [],
      "name": "jobCount",
      "outputs": [
        {
          "internalType": "uint256",
          "name": "",
          "type": "uint256"
        }
      ],
      "stateMutability": "view",
      "type": "function"
    },
    {
      "inputs": [],
      "name": "paymentToken",
      "outputs": [
        {
          "internalType": "contract IERC20",
          "name": "",
          "type": "address"
        }
      ],
      "stateMutability": "view",
      "type": "function"
    },
    {
      "inputs": [
        {
          "internalType": "uint256",
          "name": "jobId",
          "type": "uint256"
        },
        {
          "internalType": "bytes32",
          "name": "reason",
          "type": "bytes32"
        }
      ],
      "name": "reject",
      "outputs": [],
      "stateMutability": "nonpayable",
      "type": "function"
    },
    {
      "inputs": [
        {
          "internalType": "uint256",
          "name": "jobId",
          "type": "uint256"
        },
        {
          "internalType": "address",
          "name": "provider",
          "type": "address"
        }
      ],
      "name": "setProvider",
      "outputs": [],
      "stateMutability": "nonpayable",
      "type": "function"
    },
    {
      "inputs": [
        {
          "internalType": "uint256",
          "name": "jobId",
          "type": "uint256"
        },
        {
          "internalType": "bytes32",
          "name": "deliverableRef",
          "type": "bytes32"
        }
      ],
      "name": "submit",
      "outputs": [],
      "stateMutability": "nonpayable",
      "type": "function"
    }
  ],
  "bytecode": "0x60a060405234801561001057600080fd5b506040516114b43803806114b483398101604081905261002f9161008b565b60017f9b779b17422d0df92223018b32b4d1fa46e071723d6817e2486d003becc55f00556001600160a01b03811661007a5760405163d92e233d60e01b815260040160405180910390fd5b6001600160a01b03166080526100bb565b60006020828403121561009d57600080fd5b81516001600160a01b03811681146100b457600080fd5b9392505050565b6080516113c36100f16000396000818160bd015281816103a40152818161054f01528181610a610152610bc201526113c36000f3fe608060405234801561001057600080fd5b506004361061009e5760003560e01c8063bf22c45711610066578063bf22c45714610134578063c86a864914610154578063ca1d209d14610167578063cd56b1b61461017a578063d0fae5911461018d57600080fd5b80632ecea788146100a35780633013ce29146100b85780634c5d8a0f146100fc5780635b7baf641461010e5780636be1320b14610121575b600080fd5b6100b66100b1366004610f59565b6101a0565b005b6100df7f000000000000000000000000000000000000000000000000000000000000000081565b6040516001600160a01b0390911681526020015b60405180910390f35b6000545b6040519081526020016100f3565b6100b661011c366004610f7b565b6102e6565b6100b661012f366004610f59565b61041f565b610147610142366004610f7b565b6105ec565b6040516100f39190611012565b6101006101623660046110c4565b61075a565b6100b6610175366004610f7b565b6109a0565b6100b6610188366004610f59565b610af3565b6100b661019b366004611166565b610c55565b60006101ab83610d72565b60028101549091506001600160a01b03166101d95760405163369b492760e21b815260040160405180910390fd5b60028101546001600160a01b0316331461020657604051631a40715960e11b815260040160405180910390fd5b6001600682015460ff16600581111561022157610221610fda565b14610251576006810154604051633ba7bf8960e11b81526102489160ff1690600401611192565b60405180910390fd5b80600501544211156102765760405163ef3ceaeb60e01b815260040160405180910390fd5b816102945760405163cbb9ceaf60e01b815260040160405180910390fd5b6007810182905560068101805460ff19166002179055604051828152339084907f80c17db79857f338a6a6df68a6883ecc0ce78e2202fe61ed979733573f40538e9060200160405180910390a3505050565b6102ee610dbd565b60006102f982610d72565b90508060050154421161031f57604051630d9fd01160e41b815260040160405180910390fd5b6001600682015460ff16600581111561033a5761033a610fda565b1415801561036157506002600682015460ff16600581111561035e5761035e610fda565b14155b15610388576006810154604051633ba7bf8960e11b81526102489160ff1690600401611192565b60068101805460ff19166005179055805460048201546103d7917f00000000000000000000000000000000000000000000000000000000000000006001600160a01b0390811692911690610dd9565b604051339083907fd86f3d2d747d5d831df461fda7bf64b7d9d57ff4b8b3fe58836776cf90a6bda590600090a35061041c600160008051602061136e83398151915255565b50565b610427610dbd565b600061043283610d72565b600681015490915060ff16600081600581111561045157610451610fda565b036104ce5781546001600160a01b0316331461048057604051630836f21d60e21b815260040160405180910390fd5b60068201805460ff19166004179055604051838152339085907fae7362b1af91f4492868987b9c73990d780060811551b58728fbe96fd1bab275906020015b60405180910390a350506105d1565b60018160058111156104e2576104e2610fda565b14806104ff575060028160058111156104fd576104fd610fda565b145b156105b65760018201546001600160a01b0316331461053157604051633246566b60e21b815260040160405180910390fd5b60068201805460ff19166004908117909155825490830154610582917f00000000000000000000000000000000000000000000000000000000000000006001600160a01b0390811692911690610dd9565b604051838152339085907fae7362b1af91f4492868987b9c73990d780060811551b58728fbe96fd1bab275906020016104bf565b80604051633ba7bf8960e11b81526004016102489190611192565b6105e8600160008051602061136e83398151915255565b5050565b60408051610100810182526000808252602082018190529181018290526060808201526080810182905260a0810182905260c0810182905260e081019190915261063582610d72565b604080516101008101825282546001600160a01b03908116825260018401548116602083015260028401541691810191909152600382018054919291606084019190610680906111a6565b80601f01602080910402602001604051908101604052809291908181526020018280546106ac906111a6565b80156106f95780601f106106ce576101008083540402835291602001916106f9565b820191906000526020600020905b8154815290600101906020018083116106dc57829003601f168201915b5050509183525050600482015460208201526005808301546040830152600683015460609092019160ff169081111561073457610734610fda565b600581111561074557610745610fda565b81526020016007820154815250509050919050565b600085810361077c5760405163d937d5df60e01b815260040160405180910390fd5b8460000361079d57604051630757bfc960e21b815260040160405180910390fd5b6001600160a01b0384166107c45760405163d92e233d60e01b815260040160405180910390fd5b4282116107e457604051637d9533a960e11b815260040160405180910390fd5b60008054905090506000604051806101000160405280336001600160a01b03168152602001866001600160a01b03168152602001856001600160a01b0316815260200189898080601f0160208091040260200160405190810160405280939291908181526020018383808284376000920182905250938552505050602082018990526040820186905260609091019081526000602091820181905283546001808201865594825290829020835160089092020180546001600160a01b03199081166001600160a01b0393841617825592840151948101805484169583169590951790945560408301516002850180549093169116179055606081015190919060038201906108f29082611246565b506080820151816004015560a0820151816005015560c08201518160060160006101000a81548160ff0219169083600581111561093157610931610fda565b021790555060e082015181600701555050836001600160a01b0316336001600160a01b0316827f77bc92743b4d070331dcd084c0ac5b4dc6e2090bb34d9175d40d9b8daaa0d463868b8b8b8960405161098e959493929190611306565b60405180910390a49695505050505050565b6109a8610dbd565b60006109b382610d72565b80549091506001600160a01b031633146109e057604051630836f21d60e21b815260040160405180910390fd5b6000600682015460ff1660058111156109fb576109fb610fda565b14610a22576006810154604051633ba7bf8960e11b81526102489160ff1690600401611192565b8060050154421115610a475760405163ef3ceaeb60e01b815260040160405180910390fd5b60068101805460ff191660011790556004810154610a93907f00000000000000000000000000000000000000000000000000000000000000006001600160a01b03169033903090610e13565b336001600160a01b0316827fe3fbcc1ea1bdc559ec7f0347efde7655e58b5f45a30b0e4470a583c3ef5496b38360040154604051610ad391815260200190565b60405180910390a35061041c600160008051602061136e83398151915255565b610afb610dbd565b6000610b0683610d72565b60018101549091506001600160a01b03163314610b3657604051633246566b60e21b815260040160405180910390fd5b6002600682015460ff166005811115610b5157610b51610fda565b14610b78576006810154604051633ba7bf8960e11b81526102489160ff1690600401611192565b60028101546001600160a01b0316610ba35760405163369b492760e21b815260040160405180910390fd5b60068101805460ff1916600317905560028101546004820154610bf5917f00000000000000000000000000000000000000000000000000000000000000006001600160a01b0390811692911690610dd9565b60028101546040518381526001600160a01b0390911690339085907f8179d6d14b08958d39b41c40b721eea0a1cf5a8fa16a691b2a7394a82d774cf49060200160405180910390a4506105e8600160008051602061136e83398151915255565b6000610c6083610d72565b80549091506001600160a01b03163314610c8d57604051630836f21d60e21b815260040160405180910390fd5b6000600682015460ff166005811115610ca857610ca8610fda565b14610ccf576006810154604051633ba7bf8960e11b81526102489160ff1690600401611192565b60028101546001600160a01b031615610cfb5760405163d07727c560e01b815260040160405180910390fd5b6001600160a01b038216610d225760405163d92e233d60e01b815260040160405180910390fd5b6002810180546001600160a01b0319166001600160a01b03841690811790915560405184907f9a87df076ea1725aba8ba29d32517ce37c9597d88cbf16ec6707892cc330ab6990600090a3505050565b600080548210610d955760405163c0a8563160e01b815260040160405180910390fd5b60008281548110610da857610da8611357565b90600052602060002090600802019050919050565b610dc5610e4f565b600260008051602061136e83398151915255565b610de68383836001610e81565b610e0e57604051635274afe760e01b81526001600160a01b0384166004820152602401610248565b505050565b610e21848484846001610ee7565b610e4957604051635274afe760e01b81526001600160a01b0385166004820152602401610248565b50505050565b60008051602061136e83398151915254600203610e7f57604051633ee5aeb560e01b815260040160405180910390fd5b565b60405163a9059cbb60e01b60008181526001600160a01b038616600452602485905291602083604481808b5af192506001600051148316610edb578383151615610ece573d6000823e3d81fd5b6000873b113d1516831692505b60405250949350505050565b6040516323b872dd60e01b60008181526001600160a01b038781166004528616602452604485905291602083606481808c5af192506001600051148316610f47578383151615610f3a573d6000823e3d81fd5b6000883b113d1516831692505b60405250600060605295945050505050565b60008060408385031215610f6c57600080fd5b50508035926020909101359150565b600060208284031215610f8d57600080fd5b5035919050565b6000815180845260005b81811015610fba57602081850181015186830182015201610f9e565b506000602082860101526020601f19601f83011685010191505092915050565b634e487b7160e01b600052602160045260246000fd5b6006811061100e57634e487b7160e01b600052602160045260246000fd5b9052565b60208152600060018060a01b0380845116602084015280602085015116604084015250604083015161104f60608401826001600160a01b03169052565b50606083015161010080608085015261106c610120850183610f94565b9150608085015160a085015260a085015160c085015260c085015161109460e0860182610ff0565b5060e0949094015192909301919091525090565b80356001600160a01b03811681146110bf57600080fd5b919050565b60008060008060008060a087890312156110dd57600080fd5b863567ffffffffffffffff808211156110f557600080fd5b818901915089601f83011261110957600080fd5b81358181111561111857600080fd5b8a602082850101111561112a57600080fd5b602092830198509650508701359350611145604088016110a8565b9250611153606088016110a8565b9150608087013590509295509295509295565b6000806040838503121561117957600080fd5b82359150611189602084016110a8565b90509250929050565b602081016111a08284610ff0565b92915050565b600181811c908216806111ba57607f821691505b6020821081036111da57634e487b7160e01b600052602260045260246000fd5b50919050565b634e487b7160e01b600052604160045260246000fd5b601f821115610e0e576000816000526020600020601f850160051c8101602086101561121f5750805b601f850160051c820191505b8181101561123e5782815560010161122b565b505050505050565b815167ffffffffffffffff811115611260576112606111e0565b6112748161126e84546111a6565b846111f6565b602080601f8311600181146112a957600084156112915750858301515b600019600386901b1c1916600185901b17855561123e565b600085815260208120601f198616915b828110156112d8578886015182559484019460019091019084016112b9565b50858210156112f65787850151600019600388901b60f8161c191681555b5050505050600190811b01905550565b6001600160a01b03861681526080602082018190528101849052838560a0830137600060a08583010152600060a0601f19601f87011683010190508360408301528260608301529695505050505050565b634e487b7160e01b600052603260045260246000fdfe9b779b17422d0df92223018b32b4d1fa46e071723d6817e2486d003becc55f00a264697066735822122039c3bbbb33668c151932996ea2baaa6930a70ac6f2bf760a47d63b08037dfeee64736f6c63430008180033",
  "linkReferences": {},
  "deployedLinkReferences": {}
}