{
  "_format": "hh-sol-artifact-1",
  "contractName": "Multisig",
  "sourceName": "contracts/Multisig.sol",
  "abi": [
    {
      "inputs": [
        {
          "internalType": "address[]",
          "name": "initialSigners",
          "type": "address[]"
        },
        {
          "internalType": "uint256",
          "name": "initialThreshold",
          "type": "uint256"
        }
      ],
      "stateMutability": "nonpayable",
      "type": "constructor"
    },
    {
      "inputs": [],
      "name": "AlreadyApproved",
      "type": "error"
    },
    {
      "inputs": [],
      "name": "AlreadyCancelled",
      "type": "error"
    },
    {
      "inputs": [],
      "name": "AlreadyExecuted",
      "type": "error"
    },
    {
      "inputs": [],
      "name": "ExecutionFailed",
      "type": "error"
    },
    {
      "inputs": [],
      "name": "InvalidDestination",
      "type": "error"
    },
    {
      "inputs": [],
      "name": "InvalidSigner",
      "type": "error"
    },
    {
      "inputs": [],
      "name": "InvalidThreshold",
      "type": "error"
    },
    {
      "inputs": [],
      "name": "NotEnoughApprovals",
      "type": "error"
    },
    {
      "inputs": [],
      "name": "NotSigner",
      "type": "error"
    },
    {
      "inputs": [],
      "name": "OnlyProposer",
      "type": "error"
    },
    {
      "inputs": [],
      "name": "ProposalNotFound",
      "type": "error"
    },
    {
      "anonymous": false,
      "inputs": [
        {
          "indexed": true,
          "internalType": "uint256",
          "name": "proposalId",
          "type": "uint256"
        },
        {
          "indexed": true,
          "internalType": "address",
          "name": "signer",
          "type": "address"
        }
      ],
      "name": "ProposalApproved",
      "type": "event"
    },
    {
      "anonymous": false,
      "inputs": [
        {
          "indexed": true,
          "internalType": "uint256",
          "name": "proposalId",
          "type": "uint256"
        }
      ],
      "name": "ProposalCancelled",
      "type": "event"
    },
    {
      "anonymous": false,
      "inputs": [
        {
          "indexed": true,
          "internalType": "uint256",
          "name": "proposalId",
          "type": "uint256"
        },
        {
          "indexed": true,
          "internalType": "address",
          "name": "proposer",
          "type": "address"
        },
        {
          "indexed": false,
          "internalType": "address",
          "name": "destination",
          "type": "address"
        },
        {
          "indexed": false,
          "internalType": "uint256",
          "name": "value",
          "type": "uint256"
        },
        {
          "indexed": false,
          "internalType": "bytes",
          "name": "data",
          "type": "bytes"
        }
      ],
      "name": "ProposalCreated",
      "type": "event"
    },
    {
      "anonymous": false,
      "inputs": [
        {
          "indexed": true,
          "internalType": "uint256",
          "name": "proposalId",
          "type": "uint256"
        }
      ],
      "name": "ProposalExecuted",
      "type": "event"
    },
    {
      "inputs": [
        {
          "internalType": "uint256",
          "name": "proposalId",
          "type": "uint256"
        }
      ],
      "name": "approveProposal",
      "outputs": [],
      "stateMutability": "nonpayable",
      "type": "function"
    },
    {
      "inputs": [
        {
          "internalType": "uint256",
          "name": "proposalId",
          "type": "uint256"
        }
      ],
      "name": "cancelProposal",
      "outputs": [],
      "stateMutability": "nonpayable",
      "type": "function"
    },
    {
      "inputs": [
        {
          "internalType": "address",
          "name": "destination",
          "type": "address"
        },
        {
          "internalType": "uint256",
          "name": "value",
          "type": "uint256"
        },
        {
          "internalType": "bytes",
          "name": "data",
          "type": "bytes"
        }
      ],
      "name": "createProposal",
      "outputs": [],
      "stateMutability": "nonpayable",
      "type": "function"
    },
    {
      "inputs": [
        {
          "internalType": "uint256",
          "name": "proposalId",
          "type": "uint256"
        }
      ],
      "name": "executeProposal",
      "outputs": [],
      "stateMutability": "nonpayable",
      "type": "function"
    },
    {
      "inputs": [
        {
          "internalType": "uint256",
          "name": "proposalId",
          "type": "uint256"
        }
      ],
      "name": "getProposal",
      "outputs": [
        {
          "internalType": "address",
          "name": "proposer",
          "type": "address"
        },
        {
          "internalType": "address",
          "name": "destination",
          "type": "address"
        },
        {
          "internalType": "uint256",
          "name": "value",
          "type": "uint256"
        },
        {
          "internalType": "bytes",
          "name": "data",
          "type": "bytes"
        },
        {
          "internalType": "uint256",
          "name": "approvals",
          "type": "uint256"
        },
        {
          "internalType": "bool",
          "name": "executed",
          "type": "bool"
        },
        {
          "internalType": "bool",
          "name": "cancelled",
          "type": "bool"
        }
      ],
      "stateMutability": "view",
      "type": "function"
    },
    {
      "inputs": [],
      "name": "getSigners",
      "outputs": [
        {
          "internalType": "address[]",
          "name": "",
          "type": "address[]"
        }
      ],
      "stateMutability": "view",
      "type": "function"
    },
    {
      "inputs": [
        {
          "internalType": "uint256",
          "name": "",
          "type": "uint256"
        },
        {
          "internalType": "address",
          "name": "",
          "type": "address"
        }
      ],
      "name": "hasApproved",
      "outputs": [
        {
          "internalType": "bool",
          "name": "",
          "type": "bool"
        }
      ],
      "stateMutability": "view",
      "type": "function"
    },
    {
      "inputs": [
        {
          "internalType": "uint256",
          "name": "proposalId",
          "type": "uint256"
        },
        {
          "internalType": "address",
          "name": "signer",
          "type": "address"
        }
      ],
      "name": "hasSignerApproved",
      "outputs": [
        {
          "internalType": "bool",
          "name": "",
          "type": "bool"
        }
      ],
      "stateMutability": "view",
      "type": "function"
    },
    {
      "inputs": [
        {
          "internalType": "address",
          "name": "",
          "type": "address"
        }
      ],
      "name": "isSigner",
      "outputs": [
        {
          "internalType": "bool",
          "name": "",
          "type": "bool"
        }
      ],
      "stateMutability": "view",
      "type": "function"
    },
    {
      "inputs": [],
      "name": "proposalCount",
      "outputs": [
        {
          "internalType": "uint256",
          "name": "",
          "type": "uint256"
        }
      ],
      "stateMutability": "view",
      "type": "function"
    },
    {
      "inputs": [
        {
          "internalType": "uint256",
          "name": "",
          "type": "uint256"
        }
      ],
      "name": "proposals",
      "outputs": [
        {
          "internalType": "address",
          "name": "proposer",
          "type": "address"
        },
        {
          "internalType": "address",
          "name": "destination",
          "type": "address"
        },
        {
          "internalType": "uint256",
          "name": "value",
          "type": "uint256"
        },
        {
          "internalType": "bytes",
          "name": "data",
          "type": "bytes"
        },
        {
          "internalType": "uint256",
          "name": "approvals",
          "type": "uint256"
        },
        {
          "internalType": "bool",
          "name": "executed",
          "type": "bool"
        },
        {
          "internalType": "bool",
          "name": "cancelled",
          "type": "bool"
        }
      ],
      "stateMutability": "view",
      "type": "function"
    },
    {
      "inputs": [
        {
          "internalType": "uint256",
          "name": "",
          "type": "uint256"
        }
      ],
      "name": "signers",
      "outputs": [
        {
          "internalType": "address",
          "name": "",
          "type": "address"
        }
      ],
      "stateMutability": "view",
      "type": "function"
    },
    {
      "inputs": [],
      "name": "threshold",
      "outputs": [
        {
          "internalType": "uint256",
          "name": "",
          "type": "uint256"
        }
      ],
      "stateMutability": "view",
      "type": "function"
    },
    {
      "stateMutability": "payable",
      "type": "receive"
    }
  ],
  "bytecode": "0x60806040523480156200001157600080fd5b506040516200128438038062001284833981016040819052620000349162000192565b801580620000425750815181115b15620000615760405163aabd5a0960e01b815260040160405180910390fd5b60005b8251811015620001545760008382815181106200008557620000856200026c565b6020026020010151905060006001600160a01b0316816001600160a01b03161480620000c957506001600160a01b03811660009081526003602052604090205460ff165b15620000e857604051632057875960e21b815260040160405180910390fd5b6001600160a01b03166000818152600360205260408120805460ff19166001908117909155815480820183559180527f290decd9548b62a8d60345a988386fc84ba6bc95484008f6362f93160ef3e56390910180546001600160a01b0319169092179091550162000064565b506001555062000282565b634e487b7160e01b600052604160045260246000fd5b80516001600160a01b03811681146200018d57600080fd5b919050565b60008060408385031215620001a657600080fd5b82516001600160401b0380821115620001be57600080fd5b818501915085601f830112620001d357600080fd5b8151602082821115620001ea57620001ea6200015f565b8160051b604051601f19603f830116810181811086821117156200021257620002126200015f565b6040529283528183019350848101820192898411156200023157600080fd5b948201945b838610156200025a576200024a8662000175565b8552948201949382019362000236565b97909101519698969750505050505050565b634e487b7160e01b600052603260045260246000fd5b610ff280620002926000396000f3fe6080604052600436106100c65760003560e01c80636d47ce861161007f57806398951b561161005957806398951b561461028f578063c7f758a8146102af578063da35c664146102cf578063e0a8f6f5146102e557600080fd5b80636d47ce86146101f75780637df73e271461023d57806394cf795e1461026d57600080fd5b8063013cf08b146100d25780630d61b5191461010e5780632079fb9a146101305780632358d5a81461016857806342cde4e8146101b357806350eb9321146101d757600080fd5b366100cd57005b600080fd5b3480156100de57600080fd5b506100f26100ed366004610b8b565b610305565b6040516101059796959493929190610ba4565b60405180910390f35b34801561011a57600080fd5b5061012e610129366004610b8b565b6103dd565b005b34801561013c57600080fd5b5061015061014b366004610b8b565b610588565b6040516001600160a01b039091168152602001610105565b34801561017457600080fd5b506101a3610183366004610c54565b600560209081526000928352604080842090915290825290205460ff1681565b6040519015158152602001610105565b3480156101bf57600080fd5b506101c960015481565b604051908152602001610105565b3480156101e357600080fd5b5061012e6101f2366004610c80565b6105b2565b34801561020357600080fd5b506101a3610212366004610c54565b60009182526005602090815260408084206001600160a01b0393909316845291905290205460ff1690565b34801561024957600080fd5b506101a3610258366004610d07565b60036020526000908152604090205460ff1681565b34801561027957600080fd5b50610282610787565b6040516101059190610d29565b34801561029b57600080fd5b5061012e6102aa366004610b8b565b6107e9565b3480156102bb57600080fd5b506100f26102ca366004610b8b565b610945565b3480156102db57600080fd5b506101c960025481565b3480156102f157600080fd5b5061012e610300366004610b8b565b610a6a565b60046020526000908152604090208054600182015460028301546003840180546001600160a01b03948516959490931693919261034190610d76565b80601f016020809104026020016040519081016040528092919081815260200182805461036d90610d76565b80156103ba5780601f1061038f576101008083540402835291602001916103ba565b820191906000526020600020905b81548152906001019060200180831161039d57829003601f168201915b50505050600483015460059093015491929160ff80821692506101009091041687565b3360009081526003602052604090205460ff1661040d5760405163143606b960e31b815260040160405180910390fd5b600081815260046020526040902080546001600160a01b03166104435760405163635e873760e01b815260040160405180910390fd5b600581015460ff161561046957604051630dc1019760e01b815260040160405180910390fd5b6005810154610100900460ff1615610494576040516354e3762560e01b815260040160405180910390fd5b600154816004015410156104bb5760405163125e6df560e11b815260040160405180910390fd5b60058101805460ff1916600190811790915581015460028201546040516000926001600160a01b031691906104f4906003860190610db0565b60006040518083038185875af1925050503d8060008114610531576040519150601f19603f3d011682016040523d82523d6000602084013e610536565b606091505b505090508061055857604051632b3f6d1160e21b815260040160405180910390fd5b60405183907f712ae1383f79ac853f8d882153778e0260ef8f03b504e2866e0593e04d2b291f90600090a2505050565b6000818154811061059857600080fd5b6000918252602090912001546001600160a01b0316905081565b3360009081526003602052604090205460ff166105e25760405163143606b960e31b815260040160405180910390fd5b6001600160a01b0384166106095760405163ac6b05f560e01b815260040160405180910390fd5b600060025490506040518060e00160405280336001600160a01b03168152602001866001600160a01b0316815260200185815260200184848080601f01602080910402602001604051908101604052809392919081815260200183838082843760009201829052509385525050506020808301829052604080840183905260609384018390528583526004825291829020845181546001600160a01b03199081166001600160a01b03928316178355928601516001830180549094169116179091559083015160028201559082015160038201906106e79082610e8d565b506080820151600482015560a08201516005909101805460c09093015115156101000261ff00199215159290921661ffff19909316929092171790556002805490600061073383610f4d565b9190505550336001600160a01b0316817f7a3baf3086c0db63c3e2de0e8d6a51c2fdbbb9c69219e08eecf1781e109f4090878787876040516107789493929190610f74565b60405180910390a35050505050565b606060008054806020026020016040519081016040528092919081815260200182805480156107df57602002820191906000526020600020905b81546001600160a01b031681526001909101906020018083116107c1575b5050505050905090565b3360009081526003602052604090205460ff166108195760405163143606b960e31b815260040160405180910390fd5b600081815260046020526040902080546001600160a01b031661084f5760405163635e873760e01b815260040160405180910390fd5b600581015460ff161561087557604051630dc1019760e01b815260040160405180910390fd5b6005810154610100900460ff16156108a0576040516354e3762560e01b815260040160405180910390fd5b600082815260056020908152604080832033845290915290205460ff16156108db5760405163080fc0bd60e11b815260040160405180910390fd5b60008281526005602090815260408083203384529091528120805460ff191660011790556004820180549161090f83610f4d565b9091555050604051339083907f049c28adfe50bcf1b76fd95273b6a24566b9f377e52fddc653c3355248dad07a90600090a35050565b60008181526004602052604081208054829182916060918391829182916001600160a01b03166109885760405163635e873760e01b815260040160405180910390fd5b805460018201546002830154600484015460058501546003860180546001600160a01b03968716969095169490929160ff80821692610100909204169084906109d090610d76565b80601f01602080910402602001604051908101604052809291908181526020018280546109fc90610d76565b8015610a495780601f10610a1e57610100808354040283529160200191610a49565b820191906000526020600020905b815481529060010190602001808311610a2c57829003601f168201915b50505050509350975097509750975097509750975050919395979092949650565b3360009081526003602052604090205460ff16610a9a5760405163143606b960e31b815260040160405180910390fd5b600081815260046020526040902080546001600160a01b0316610ad05760405163635e873760e01b815260040160405180910390fd5b600581015460ff1615610af657604051630dc1019760e01b815260040160405180910390fd5b6005810154610100900460ff1615610b21576040516354e3762560e01b815260040160405180910390fd5b80546001600160a01b03163314610b4b57604051630608c7c960e51b815260040160405180910390fd5b60058101805461ff00191661010017905560405182907f416e669c63d9a3a5e36ee7cc7e2104b8db28ccd286aa18966e98fa230c73b08c90600090a25050565b600060208284031215610b9d57600080fd5b5035919050565b600060018060a01b03808a1683526020818a16602085015288604085015260e06060850152875191508160e085015260005b82811015610bf35788810182015185820161010001528101610bd6565b5050610100600081838601015280601f19601f84011685010192505050846080830152610c2460a083018515159052565b82151560c083015298975050505050505050565b80356001600160a01b0381168114610c4f57600080fd5b919050565b60008060408385031215610c6757600080fd5b82359150610c7760208401610c38565b90509250929050565b60008060008060608587031215610c9657600080fd5b610c9f85610c38565b935060208501359250604085013567ffffffffffffffff80821115610cc357600080fd5b818701915087601f830112610cd757600080fd5b813581811115610ce657600080fd5b886020828501011115610cf857600080fd5b95989497505060200194505050565b600060208284031215610d1957600080fd5b610d2282610c38565b9392505050565b6020808252825182820181905260009190848201906040850190845b81811015610d6a5783516001600160a01b031683529284019291840191600101610d45565b50909695505050505050565b600181811c90821680610d8a57607f821691505b602082108103610daa57634e487b7160e01b600052602260045260246000fd5b50919050565b6000808354610dbe81610d76565b60018281168015610dd65760018114610deb57610e1a565b60ff1984168752821515830287019450610e1a565b8760005260208060002060005b85811015610e115781548a820152908401908201610df8565b50505082870194505b50929695505050505050565b634e487b7160e01b600052604160045260246000fd5b601f821115610e88576000816000526020600020601f850160051c81016020861015610e655750805b601f850160051c820191505b81811015610e8457828155600101610e71565b5050505b505050565b815167ffffffffffffffff811115610ea757610ea7610e26565b610ebb81610eb58454610d76565b84610e3c565b602080601f831160018114610ef05760008415610ed85750858301515b600019600386901b1c1916600185901b178555610e84565b600085815260208120601f198616915b82811015610f1f57888601518255948401946001909101908401610f00565b5085821015610f3d5787850151600019600388901b60f8161c191681555b5050505050600190811b01905550565b600060018201610f6d57634e487b7160e01b600052601160045260246000fd5b5060010190565b6001600160a01b0385168152602081018490526060604082018190528101829052818360808301376000818301608090810191909152601f909201601f19160101939250505056fea26469706673582212205be926b135893253a758b4426d7cb6e63e44bcce5dbf8ab370e12d8bcfa65e1a64736f6c63430008180033",
  "linkReferences": {},
  "deployedLinkReferences": {}
}